:020000040000FA
:200000000203370218034100C4002202180B222222FFFF021813E4FFA10EFF02181B75C8A7
:200020000122FF021823FFFFFFFFFF02182BFFFFFFFFFF021833FFFFFFFFFF02183BFFFF8B
:20004000FFFFFF021843FFFFFFFFFF02184BFFFFFFFFFF021853FFFFFFFFFF02185BFFFF10
:20006000FFFFFF021863FFFFFFFFFF02186BFFFFFFFFFF021873BB010689828A83E02250D2
:2000800002E722BBFE02E32289828A83E49322BB010CE58229F582E5833AF583E0225006A3
:2000A000E92582F8E622BBFE06E92582F8E222E58229F582E5833AF583E49322BB01068960
:2000C000828A83F0225002F722BBFE01F322F8BB010DE58229F582E5833AF583E8F0225019
:2000E00006E92582C8F622BBFE05E92582C8F222C5F0F8A3E028F0C5F0F8E58215827002FB
:200100001583E038F022A3F8E0C5F025F0F0E582158270021583E0C838F0E822BB010A89B7
:20012000828A83E0F5F0A3E022500687F009E71922BBFE07E3F5F009E3192289828A83E423
:2001400093F5F074019322BB010A89828A83F0E5F0A3F0225006F709A7F01922BBFE06F3CB
:20016000E5F009F31922EF2BFFEE3AFEED39FDEC38FC22C3EF9BFFEE9AFEED99FDEC98FCFA
:200180002275F008758200EF2FFFEE33FECD33CDCC33CCC58233C5829BED9AEC99E582989E
:2001A000400CF582EE9BFEED9AFDEC99FC0FD5F0D6E4CEFBE4CDFAE4CCF9A88222B800C180
:2001C000B90059BA002DEC8BF084CFCECDFCE5F0CBF97818EF2FFFEE33FEED33FDEC33FC38
:2001E000EB33FB10D703994004EB99FB0FD8E5E4F9FA227818EF2FFFEE33FEED33FDEC33D3
:20020000FCC933C910D7059BE99A4007EC9BFCE99AF90FD8E0E4C9FAE4CCFB2275F010EF2E
:200220002FFFEE33FEED33FDCC33CCC833C810D7079BEC9AE899400AED9BFDEC9AFCE89964
:20024000F80FD5F0DAE4CDFBE4CCFAE4C8F922EF5BFFEE5AFEED59FDEC58FC22EB9FF5F038
:20026000EA9E42F0E99D42F0E89C45F022E8600FECC313FCED13FDEE13FEEF13FFD8F12234
:20028000E8600FEFC333FFEE33FEED33FDEC33FCD8F122E0FCA3E0FDA3E0FEA3E0FF22E080
:2002A000F8A3E0F9A3E0FAA3E0FB22ECF0A3EDF0A3EEF0A3EFF022A8828583F0D083D08265
:2002C0001202CE1202CE1202CE1202CEE473E493A3C583C5F0C583C8C582C8F0A3C583C569
:2002E000F0C583C8C582C822E0FBA3E0FAA3E0F922F8E0FBA3A3E0F925F0F0E58215827072
:20030000021583E0FA38F022EBF0A3EAF0A3E9F022D083D082F8E4937012740193700DA36B
:20032000A393F8740193F5828883E4737402936860EFA3A3A380DF75814B02079BAEFFEE26
:2003400054CFFEEFC454F024804EF5FF2290091151AB9009115193B1A1900915E06F603466
:20036000110F9102EF6004111080F7B11AB1DB9000BAE0FF91E660099009115193781071F8
:200380009A900911719690091191EF900915E0FFB108D322C32251937808516DE4E5C820F5
:2003A000E2FB8FEB229000D151AB9000D57108110F9102EF6004111080F7B11AB1DB900004
:2003C000BAE0FF91E660099000D151937810719A9000D171969000D15193E4801B9000D838
:2003E000D1BB60189000D551E8EA494B60089000D5120E2B8001E4FF719D80E1B126E4FF38
:20040000A10E7F01B10E30021491D8915290092AEFF0B12690092AE020E002C20230021731
:2004200091419000B8EF91F4600BA3E0F46006EF30E702C202B126E4FFB10EA202E433FFE7
:2004400022B1DB7FD7719D7FFF719D91569000B7EFF07FFF719DE5C820E2FBAFEB227F017F
:20046000B10E9009287401F0900928E0602E91D89152900928EFF0B12691419000B8EFF0AC
:20048000B126900928E0540191F460DCA3E0F460D7EF30E7D3E4900928F080CCB1DB7F9FBC
:2004A000719D91529000B991509000BE91509000BFEFF0B10A9000B7E0F4601BA3E0F4609C
:2004C000169000BEE0FD541F240FA3F0EDC413540744809000BEF022B1DB7F05619D7F01D1
:2004E000B10EB1DB7F03719D9000BDE06402225193E4619DF09000B7E0FFF422FFFFFFFF7E
:20050000FFFFFFFFFFFFFFFF719DB126E4FFEFB4010443FE202253FEDF227F01B10ED2028B
:20052000B1DB7F06719D1213E7EF70FA9000BEE0F4600A9009277406F0F17D70FC9000BC5B
:20054000E07111055F04056714056C15057117058130058634058B36059037000005794376
:200560004610854680802F43471080084347208003434780854790801D4348208548A08041
:2005800015434901800D434910800843494080034349808549B0900927740CF0F17D70FC25
:2005A0002290090C51AB110F9102EF6004111080F791DE600990090C51937810719A90094D
:2005C0000C719690090C91EF9152900910EFF0B10A900910E0FF227F01B10E9000BCE07137
:2005E0001105FD04060514060A15060F17061F30062434062936062E37000006175346EF4C
:20060000854680802F5347EF80085347DF800353477F854790801D5348DF8548A0801553F2
:2006200049FE800D5349EF80085349BF800353497F8549B07F0CDFFE22110F9102EF6004CC
:20064000111080F7B11AB1DB7F01719D7F03719DB126E4FFA10E9000DA51AB9000DE7108D7
:20066000110F9102EF6004111080F791DE60099000DA51937810719A9000DA71969000DA48
:2006800091EF9000E1D1BB601291529000DE51E8EF11BC9000DF1212AA80E7B126E4FFA126
:2006A0000E9000B7E020E012B1D77F3D719D7F2A719D7F80719D7FA6B1082274FFF5F03154
:2006C0000645F022900929EFF09000C5E064027022B1D7900929E07FAB60027FB9719DB142
:2006E00026900929E09000C4F070047F1EDFFEE4FFB10E22900000EEF0A3EFF0A351939035
:20070000000851AB900006E0FFA3E090000CCF805D90000C120FDC605BC3EF9440EE940039
:200720004006A37440F0800590000EEFF0F185E0FF120D0DEFF09000085193D15690000E89
:20074000E0FFC390000DE09FF090000CE09400F0900008519F90000EE4FCFDFE31669000C3
:200760000851ABF174F185120C32900000EEF0A3EFF0809D900000E0FEA3E0FF229009276B
:20078000E014F0E0227B017A00790F90000E22110F9102EF6004111080F72275FF03759EEB
:2007A000029017FAE493F53C75FF02E5E654036003020B5D753CDE753DAD753EBE753FEF87
:2007C000C2AF75FF0275E404F5E47546FF7547FF7548FF7549FF7542FF7543FF7544FF7574
:2007E00045FF75FF0253E6BF1212CD1210D4120FE3EF64016003020B5490180893FE74018E
:2008000093FF9000ADEEF0A3EFF0F5828E83E493F540740193F541740293F54A740393F5F0
:200820004B740493F530740593F531740693F532740793F533C201EF4E7002212BEFF4FF01
:20084000EEF44F7002212BE540454AFEE541454BFFE5304EFEE5314FFFE5324EFEE5334FB3
:200860004E7002212BE54BF4FFE54AF4FEE541F4FDE540F44EFEED4FFFE531F4FDE530F461
:200880004EFEEF4DFFE533F4FDE532F44EFEEF4D4E7002212B7F0312033DE53324FFFFE536
:2008A00032B124640370247F0212033DE53124FFFFE530B124B402137F0112033DE54B2452
:2008C000FFFFE54AB124B40102D20120015D7F0112033DB1459000E8E54AF0A3E54BF07F6D
:2008E0000F7E1D91A57F02B13A9000E8E530F0E53191A37F03B13A9000E8E532F0E5339150
:20090000A37F0112033D900922E0FEA3E0FF7BFF7A187900E425419000E9F0E54034E8903E
:2009200000E891A44EC37001D39201300109B19AEF6401600261549000ADE0FEA3E0F582AD
:200940008E83740C93F53A740D93F53B9000961202937160900079B181FD9000AF7188EF03
:200960002408FFE43E71727B007A007938B10D7402F0120656C200D3900078E09539900034
:2009800077E09538400241639000AF12029FC000C001C002C003AE38AF39E4FCFDC006C024
:2009A00007900077E0FEA3E0FBAA06E4F9F8D007D006120173D003D002D001D00012016656
:2009C000716090007B120293EF24F2FFEE34FFB14C9000AFB1D4400241639000AF120293E2
:2009E0007A00799FB10B740EF01206569000ABE0F536A3E0F5379000A1E0F54AA3E0F54BC1
:200A0000A3E0F530A3E0F531A3E0F532A3E0F533900092120293EF24FFFFEE347F71727161
:200A200060AE4AAF4BE4FCFD9000AF71881205A1EF6401702E71667160AE30AF31E4FCFD62
:200A40009000AF71881205A1BF021871667160AE32AF33E4FCFD9000AF71881205A1BF03D4
:200A600002D200200002615030010EE53B65377004E53A6536700261507B017A0979227178
:200A80008E4002615090009B1202B700001800717A612A7440D395345002613F90007B9173
:200AA000B3EE34F8B14C9000AF12029FD312025C4002613F90009B1202937B007AF879011C
:200AC0007800C312025C40779000AF1202930B7A0179009000E17408F0A3E4F0120656E429
:200AE000F535FB91DFAF34B156E535C39408502091DDE5357F00FEEF2400F974013EFA7B55
:200B00000190090BE535F0AD34121330053580D990009B91B3EE3408717290009B1202ABF7
:200B20009000AF91B3EE340871727160E4FB7A08F9F890009B1202931201BD8F3441937455
:200B400040D39534400A91DDAF34B156053480EFE4FFB1DBE4F53CF53DF53EF53F02180038
:200B60009000AF0202AB9000AF120293E42FFFEE3480FEE43DFDE43CFC22900079E0FEA309
:200B8000E0FFE4FCFD90009612029F02016690091F120308717AEF2408FFE43E71727A00FE
:200BA000797FB10B7402F012065690007FB181FD90009271887B017A007984B10D740EF031
:200BC000120656900092716991C2900086B12D7F0F7E1D91C8B114C006C00791B0E43E919C
:200BE000BA900088B12DD007D00691C8B114C006C00791B0EE348091BA90008AB12DD007F0
:200C0000D00691C8B114C006C007717A91C2900085E02400FE900084E034E8900006F0A3C5
:200C2000CEF0D007D00691C812011C45F0C37001D322E0FD9000E8E4F0A3EDF09000E3EE59
:200C4000F0A3EFF0A31203089000E81206BB604A9000E5D12B9000EAF07D80ED60EA919A33
:200C6000EE7C0030E7027C019000EAE05D7B0060027B01EB6CFCEF25E0FFEE339000E3F09A
:200C8000A3EFF0AF04EF600C9000E3E06410F0A3E06421F0EDC313FD80C19000E3E0FEA320
:200CA000E0FF22A3F0913C900922EEF0A3EFF022900092120293E42FFF22FEED3401FDE498
:200CC0003CFC9000020202AB1206F490091F1202E8EE8FF012014790091F0202E87B007A7B
:200CE00000793CB17A75FF03120076F5D375FF03900001B11B900002B11B900003B11B7547
:200D0000D40175FF03E5D55402FF227B019000E1E4F0A32212011CFFAEF02212008FF5D379
:200D200075FF0322347F8F82F583E49322E0FFA3E0900006CFF0A3EFF02212033D900922DD
:200D4000E0FEA3E0FF7BFF7A80790022FEED34FFFDEC34FFFC2275FF03EF543F4480F5D149
:200D6000E5D520E20AE5D520E005E5D530E1F1E5D55403FF75FF0375D50575FF0375D4029A
:200D800022E0FEA3E0FFE4FC227F0F7E1D91349000EF1202E89000F28132E4900926F0900E
:200DA000009AE06020B1CB70087FFF7E77FDFC800CD11B50107FFF7EFF7D017C001205A154
:200DC000900926EFF0900926E0FF22E4FFFE7D02FC90007B12029FC302025C900924EFF0DC
:200DE000E4A3F090009AE06021B1CB7008D1107E777D00800AD11B5011D1107EFF7D017C7B
:200E00000012034DE433900925F0900925E0FF22900924E0900915F07FFF2290007B1202F2
:200E200093E4FBFA7904F8D302025CE475F0011202F1020076B17A75FF03E5D5F45402FF32
:200E4000229000FCD15CC0079000FC1202E89000FFE0FFB10DEFF0D007020656120308E427
:200E6000FCFD22900902D15CC0079009021202E8900905F1D0F0D00790004F1202AB9000DD
:200E800053120308E4900076F0D3900057E0941E900056E094004001227B017A00795890A8
:200EA0000056E0FFA3E09000E1CFF0A3EFF090004F1202931206569000531202E8E94A6062
:200EC0000F900076E0F58275830012008FFF80027F00900076E02458F582E43400F583E0C4
:200EE0006F6002C322900076E004FFF0D3900057E09F900056E0940050BD229000C6120237
:200F0000AB9000CA1203081214389000CDF1D0F09000C6120293D1785002E1C59000C1E0D4
:200F200024FFFF9000C0E034FFFEE4FCFD9000C612029F12024F9000CFEEF0A3EFF04E6078
:200F40003BF1C7C39000C1E09FFF9000C0E09EFE9000CFF0A3EFF09000CDE0FCA3E0FDD3E3
:200F60009FEC9E5006A3ECF0A3EDF01213F3E94A6004F1C780427E007F00803C9000CDF1C3
:200F8000DC60409000C0E0FCA3E0FDD3EF9DEE9C400A9000CFECF0A3EDF0800D9000CDE071
:200FA000FFA3E0A3CFF0A3EFF01213F3E94A6004F1C780047E007F009000CBEE8FF0120009
:200FC000F080B9D322C3229000CFE0FEA3E0FF22E0FFA3E0900056CFF0A3EF22E0FEA3E011
:200FE000FF4E22E490009AF07B017A007981121378900083E0FBB411229000961202B70031
:201000000078009000921202B7000060009000777418F0A3E4F0A3F0A380277412D39B50F0
:20102000279000961202B7000200009000921202B700020000E4900077F0A3F0A37418F01A
:20104000A3E4F090009A04F090009AE0FB6017E4FFFE7D02FC900083E024EFF9F812028098
:2010600090007B1202ABAF032275FF03E4F59751B1E59720E1FB75FF03AF9922900916EFF2
:20108000F0A3EDF0A3120308900917E06045901215E06012900916E02410FF1169900918F5
:2010A0001202E8EF8017900916E0640190091870071202E8748080051202E874FF1200BCE0
:2010C00090091951AA900917E014F0900916E004F080B5227B017A0079BC7F0351917A00EC
:2010E00079C57F0851917A0079C27D027F09117C7B017A0079C07D027F0B117C9000C012D9
:201100000FDC6006BEFF1BBFFF189000C5E024FD600304700451A080099000C0E4F0A374EA
:2011200040F09000C5E024FD60030470089000BD7403F080069000BD7402F09000BCE0121F
:201140000311115E04116914117115117917118F30119734119F3611A7370000118475FFB8
:20116000015342EF8542FD804775FF015343EF800E75FF015343DF800675FF0153437F8558
:2011800043C9802C75FF015344DF8544CA802175FF015345FE801675FF015345EF800E75D8
:2011A000FF015345BF800675FF0153457F8545CB1205267F11518BE4FF1206C412045E90C5
:2011C00000BA7402F09000BEE0247F60090470165198740A80071206A151987458F090004F
:2011E000BD7403F051A09000BFE0F4600241889000C2E0FEA3E0FF64104E70069000BF74DF
:201200000EF0EF64204E70069000BF740FF0EF64404E70069000BF7410F0EF64804E700626
:201220009000BF7411F0E4B5070AEEB401069000BF7412F0E4B5070AEEB402069000BF74BB
:2012400013F0E4B5070AEEB404069000BF7414F0E4B5070AEEB408069000BF7415F0E4B5B3
:20126000070AEEB410069000BF7416F0E4B5070AEEB420069000BF7417F0E4B5070AEEB454
:2012800040069000BF7418F0020639EF4420F5FE227D01117C7B01227F10518B9000BA2214
:2012A0009000C07401F0A3E4F022E475F0010200F075FF038F9875FF032275FF03759701E9
:2012C00051B1E59720E1FB75FF03AF992290091B7410F090091BE0FFD3947F503D1169907B
:2012E000091CEFF090091BE0B410067E1D7F0F800890091DE0FEA3E0FF7B017A09791C90A1
:2013000000E8E4F0A304F0120C3C90091DEEF0A3EFF090091BE004F080B990091DE0700241
:20132000A3E07F0070027F01901215EFF024FF2275FF03ACD5EC20E13C75FF03ED543FF5D1
:20134000D175FF03E9F5D375FF03EA540FFF90090BE0C4547044804FF5D2E5D520E205E545
:20136000D530E0F6E5D55401FC75FF0343D40275FF0375D505AF04229000B9E01200BC90D5
:2013800000BEE09000011200CE9000BFE09000020200CEE4FCFD0205A1AB05E4FCFD900902
:2013A00015EBF002034D9000F5120E5CC0079000F51202E89000F8E0FFA3E09000CDCFF09C
:2013C000A3EFF0D007020EFBEFB40109D2AD75FF0143AE4022C2AD75FF0153AEBF22E5C842
:2013E0005402FF75C80222E5C85404FF22E5C85401FF229000CA1202E89000CFE0FFA3E0D7
:201400009000D8CFF0A3EFF09000C61202931203A59000CFE0FEA3E0FFC39000CEE09FF01D
:201420009000CDE09EF09000C612029FE4FCFD1201669000C61202AB9000CA0202E8FFFF29
:20144000FFFFFFFFFFFFFFFFFFFFFFFFFFFFFFFFFFFFFFFFFFFFFFFFFFFFFFFFFFFFFFFFAC
:20146000FFFFFFFFFFFFFFFFFFFFFFFFFFFFFFFFFFFFFFFFFFFFFFFFFFFFFFFFFFFFFFFF8C
:20148000FFFFFFFFFFFFFFFFFFFFFFFFFFFFFFFFFFFFFFFFFFFFFFFFFFFFFFFFFFFFFFFF6C
:2014A000FFFFFFFFFFFFFFFFFFFFFFFFFFFFFFFFFFFFFFFFFFFFFFFFFFFFFFFFFFFFFFFF4C
:2014C000FFFFFFFFFFFFFFFFFFFFFFFFFFFFFFFFFFFFFFFFFFFFFFFFFFFFFFFFFFFFFFFF2C
:2014E000FFFFFFFFFFFFFFFFFFFFFFFFFFFFFFFFFFFFFFFFFFFFFFFFFFFFFFFFFFFFFFFF0C
:20150000FFFFFFFFFFFFFFFFFFFFFFFFFFFFFFFFFFFFFFFFFFFFFFFFFFFFFFFFFFFFFFFFEB
:20152000FFFFFFFFFFFFFFFFFFFFFFFFFFFFFFFFFFFFFFFFFFFFFFFFFFFFFFFFFFFFFFFFCB
:20154000FFFFFFFFFFFFFFFFFFFFFFFFFFFFFFFFFFFFFFFFFFFFFFFFFFFFFFFFFFFFFFFFAB
:20156000FFFFFFFFFFFFFFFFFFFFFFFFFFFFFFFFFFFFFFFFFFFFFFFFFFFFFFFFFFFFFFFF8B
:20158000FFFFFFFFFFFFFFFFFFFFFFFFFFFFFFFFFFFFFFFFFFFFFFFFFFFFFFFFFFFFFFFF6B
:2015A000FFFFFFFFFFFFFFFFFFFFFFFFFFFFFFFFFFFFFFFFFFFFFFFFFFFFFFFFFFFFFFFF4B
:2015C000FFFFFFFFFFFFFFFFFFFFFFFFFFFFFFFFFFFFFFFFFFFFFFFFFFFFFFFFFFFFFFFF2B
:2015E000FFFFFFFFFFFFFFFFFFFFFFFFFFFFFFFFFFFFFFFFFFFFFFFFFFFFFFFFFFFFFFFF0B
:20160000FFFFFFFFFFFFFFFFFFFFFFFFFFFFFFFFFFFFFFFFFFFFFFFFFFFFFFFFFFFFFFFFEA
:20162000FFFFFFFFFFFFFFFFFFFFFFFFFFFFFFFFFFFFFFFFFFFFFFFFFFFFFFFFFFFFFFFFCA
:20164000FFFFFFFFFFFFFFFFFFFFFFFFFFFFFFFFFFFFFFFFFFFFFFFFFFFFFFFFFFFFFFFFAA
:20166000FFFFFFFFFFFFFFFFFFFFFFFFFFFFFFFFFFFFFFFFFFFFFFFFFFFFFFFFFFFFFFFF8A
:20168000FFFFFFFFFFFFFFFFFFFFFFFFFFFFFFFFFFFFFFFFFFFFFFFFFFFFFFFFFFFFFFFF6A
:2016A000FFFFFFFFFFFFFFFFFFFFFFFFFFFFFFFFFFFFFFFFFFFFFFFFFFFFFFFFFFFFFFFF4A
:2016C000FFFFFFFFFFFFFFFFFFFFFFFFFFFFFFFFFFFFFFFFFFFFFFFFFFFFFFFFFFFFFFFF2A
:2016E000FFFFFFFFFFFFFFFFFFFFFFFFFFFFFFFFFFFFFFFFFFFFFFFFFFFFFFFFFFFFFFFF0A
:20170000FFFFFFFFFFFFFFFFFFFFFFFFFFFFFFFFFFFFFFFFFFFFFFFFFFFFFFFFFFFFFFFFE9
:20172000FFFFFFFFFFFFFFFFFFFFFFFFFFFFFFFFFFFFFFFFFFFFFFFFFFFFFFFFFFFFFFFFC9
:20174000FFFFFFFFFFFFFFFFFFFFFFFFFFFFFFFFFFFFFFFFFFFFFFFFFFFFFFFFFFFFFFFFA9
:20176000FFFFFFFFFFFFFFFFFFFFFFFFFFFFFFFFFFFFFFFFFFFFFFFFFFFFFFFFFFFFFFFF89
:20178000FFFFFFFFFFFFFFFFFFFFFFFFFFFFFFFFFFFFFFFFFFFFFFFFFFFFFFFFFFFFFFFF69
:2017A000FFFFFFFFFFFFFFFFFFFFFFFFFFFFFFFFFFFFFFFFFFFFFFFFFFFFFFFFFFFFFFFF49
:2017C000FFFFFFFFFFFFFFFFFFFFFFFFFFFFFFFFFFFFFFFFFFFFFFFFFFFFFFFFFFFFFFFF29
:2017E000FFFFFFFFFFFFFFFFFFFFFFFFFFFFFFFFFFFFFFFFFFFFFFFFFFFF0426FFFEFFFFDE
:20180000021EF71958195D227FB8FF0263215A2D5761766520342E353400FF0262E31A7512
:201820001A7AFF0263261B511B56FF02513EEF90183793901900730A20364CE560FF22EF9F
:20184000F56022822D1C1613111010024CE41C871C8CFF02632BC2D5E830E70FB2D5E4C30D
:201860009BFBE49AFAE499F9E498F8EC30E717B2D512188C122997E4C39BFBE49AFAE49915
:20188000F9E498F8800312299730D50DE4C39FFFE49EFEE49DFDE49CFC22789CE4F6D8FDD0
:2018A0009000007F007E10E4F0A3DFFCDEFA904FFFA3E583C394204011FEAF829020000EC3
:2018C0000FE48002F0A3DFFCDEFA121920021F0922323F241E16110E0B09070504030201A4
:2018E000F0C8A791776760463835323024222014000101020203030404050506060707FFF4
:20190000C0607419C0E0C082C08375600AE5FF54CF4490F5FF22C0607419C0E0C082C08353
:20192000756020E5FF54CF4490F5FF22C0607419C0E0C082C083756036E5FF54CF44A0F504
:20194000FF22C0607419C0E0C082C08375604CE5FF54CF44B0F5FF2290800C2116908205F8
:20196000211690827C21169080E121169081EC2116908F7B2116908F7E2116909FF1211613
:201980009082E921169082E221169082FA211690829121169093FA211690A01021169082F0
:2019A000B1211690AFD2211690AFD3211690B923211690ADD0211690BC71211690BC8921DD
:2019C0001690BC8F21169097FF211690BE23211690A03D211690C437211690C44C2116900D
:2019E000C465211690C535211690C944211690C9962116908217211690C7C1211690C79D29
:201A0000211690CB5F211690C6E4211690CB83211690C366211690CC83211690C364211624
:201A200090C4D2211690CA1E211690C2F8211690C1A92116908342211690C096211690C5EA
:201A400070211690C693211690C63F211690C5B4211690D027211690B026211690C40E21D5
:201A600016908373211690C942211690C89C211690C8F2211690D241211690B3BB21169076
:201A8000A3C8212C908006212C90D83C212C90EA8E212C90D874212C90D9DB212C90D8B50E
:201AA000212C90EAA7212C90EAA8212C90EAAE212C90C689212C90A83D212C90EAB7212C1B
:201AC00090EA2E212C90A897212C90A7F4212C90D4F7212C90CFC8212C90E735212C90D701
:201AE000C9212C90EACB212C90EA7A212C90D590212C90D4D0212C90D006212C90EADE210E
:201B00002C909E8C212C9086F9212C90EC0B212C90C6B5212C90D5EA212C90ECA4212C9071
:201B2000D448212C90ED3F212C9097F3212C9095D0212C90EDBF212C908CB6212C90EDC2A3
:201B4000212C90EDCC212C90EB5A212C90EDD2212C90EDD8212C90EDDB212C90885C212CDC
:201B600090A894212C9087BA212C9087BD212C90EEA1212C90D76A212C90EF61212C90D8EE
:201B80008D212C90982E212C90DD9C212C90F186212C90E9E4212C90E79F212C90F0E02190
:201BA0002C90CD92212C9081EA212C90E3D8212C90E704212C90F524212C90C7A5212C9046
:201BC000C6D4212C90A39D212C90F5C1212C90EA10212C90E75B212C90D99F212C909D9561
:201BE000212C90D727212C909DB4212C90F5FE212C90F632212C90F645212C90F655212C7A
:201C000090E872212C90B7A8212C90C368212C90D2F0212C90D314212C90BF85212C90F73E
:201C20002D212C90D0E7212C90D6B6212C90D0C8212C90D3EC212C90D0D7212C90D72221EE
:201C40002C90F782212C90D3F7212C90F783212C90D564212C90D572212C90D1BF212C90CD
:201C6000BF61212C90D2BE212C90F789212C90F7BD212C90B811212C90908C212C9088FBEA
:201C8000212C90C4B7212C90D580212C90D5AA212C90DA9E212C90CF6E212C90980E214209
:201CA0009098162142909855214290985E2142909876214290986221429096D8214290A833
:201CC0003F214290A867214290A8A9214290A8DD214290A909214290A972214290A9AB21EC
:201CE0004290AF6F214290AFA421429085E521429080F321429094FB214290B0A42142902F
:201D0000B064214290B030214290B12A214290B15F214290B0EA214290B5F021429086ABC2
:201D2000214290BA3F214290BC3721429094B0214290BAEF214290A3A8214290BC8B214223
:201D400090BC9321429094E221429094B721429083A7214290840F21429084122142909648
:201D6000C621429096C921429096D5214290986B2142909CFC214290BCA621429096C321AA
:201D800042909480214290BCBE21429097F721429097FA21429097FD2142909800214290E6
:201DA000BD2221429083FB21429080D02142909803214290805C214290A06E214290A0DAC5
:201DC000214290BDD7214290A464214290A5F521429094BA2142908DA72142909879214225
:201DE00090BF012142909FF9214290BF2C214290ABCB214290C01221429080DD2142909425
:201E0000C421429080C321429081C4214290C12E21429095F72142908126214290A07C2165
:201E20004290C2492142908684214290806121429094E5214290981A214290841521429064
:201E40008CAE214290B1DD214290C279214290C2CC214290C6B4214290800021429095EAC6
:201E60002142909696214290CCAA214290A126214290CCF8214290C823214290CA54214217
:201E800000902D8AE47E0193700122A3FF543F30E509541FFEE493A360010ECF54E0B4E08E
:201EA0003AEFFAEEF9E493FBA3E493FEA3E493FFA3E493FDC083C082C001C002C006C007C9
:201EC000121985D007D006D002D001D082D083A30FEF70010EDADAD9D880A954C025E06036
:201EE000105005A3DFFD809CA3A3A3DFFDDEFB8093A3A3DFFD808D75819C75FF03759E02E4
:201F0000121920023A490218D0902D8AE47E019360F4A3FF543F30E509541FFEE493A36038
:201F2000010ECF54E0B4E00EEFFAEEF9A3A3A3A3DAFDD9FB80D654C025E0604B5026E493DF
:201F4000A3F85407240CC8C333C4540F4420C8834004F456800146F6DFE480B0010204087A
:201F600010204080E493A3FAE493A3F8E493A3C8C582C8CAC583CAF0A3C8C582C8CAC58302
:201F8000CADFE9DEE78085E493A3F8E493A34003F68001F208DFF4021F0C5E86725985735E
:201FA000718480303170987A5AEF5E86725985737184803031707A5AEF5E98845AEF5E8629
:201FC00072845985737180303170987A1DBD1DC21DC71DCC1DD611224488012B77012B7926
:201FE000012B7A012B7C012B7D0201020101010204081019A319B219B719BC19C119CBFFDB
:20200000DFFE22A2AF92D5C2AF11FEEF31353182EC31353182ED3135318211FE74014F3172
:202020003531827980800631B431E5F709DBF831B431F4F7512DA2D592AF22A2AF92D5C298
:20204000AF11FEEF31353182EC31353182ED313531827980E73135318209DBF8512DA2D5E5
:2020600092AF22A2AF92D5C2AF11FEEF31353182ED3135318211FE74014F313531827980D2
:20208000800631B431E5F709DBF831B431F4F7512DA2D592AF22A2AF92D5C2AF11FEEF313B
:2020A000353182ED313531827980E73135318209DBF8512DA2D592AF22A2AF92D5C2AF11CB
:2020C000FE74014F313531827980800631B431E5F709DDF831B431F4F7512DA2D592AF227D
:2020E000A2AF92D5C2AF11FEEF313531827980E73135318209DDF8512DA2D592AF2275FFFD
:20210000014353024357028553FD75FF014353014357018553FD5164C28175FF015353FD29
:202120008553FDC2815164C28075FF015353FE8553FDC280227808C28075FF015353FE85DE
:2021400053FDC28033400FC28175FF015353FD8553FDC281800C75FF01435302435702853E
:2021600053FD516475FF014353014357018553FD5164D8C3C28075FF015353FE8553FDC29C
:20218000802275FF014353024357028553FD75FF014353014357018553FD5164A281724A0F
:2021A000924A00000000C28075FF015353FE8553FDC2802275FF014353024357028553FD31
:2021C000780875FF014353014357018553FD5164A28133C28075FF015353FE8553FDC28086
:2021E0005164D8DE22C28175FF015353FD8553FDC281800E75FF014353024357028553FDD3
:20220000516475FF014353014357018553FD5164C28075FF015353FE8553FDC2805164C2EF
:202220008175FF015353FD8553FDC28122C28175FF015353FD8553FDC281C28075FF01534E
:2022400053FE8553FDC280516475FF014353014357018553FD516475FF0143530243570287
:202260008553FD2200000000000000000000000000000022022635E86480F8E933E833608D
:20228000110460F0ED33EC337009E8FCE9FDEAFEEBFF220460DED3EB9FEA9EE99DE8C2E725
:2022A0008CF0C2F795F0400CE8CCF8E9CDF9EACEFAEBCFFB12260085D0F05804700320D515
:2022C000B3E80470075002B2D502263F92D5EC0460F7E4CCC0E0C398F8603B941860084068
:2022E0000DD0E0FB022617E4FBFAC9FC8028E830E406E4C9FBE4CAFCE830E305E4C9CACB0B
:20230000FCE854076010F8C3E913F9EA13FAEB13FBEC13FCD8F130F52FC3E49CFCEF9BFF8E
:20232000EE9AFEED99FDD0E0FBEF4E4D4C701222DB0302263CEC2CFCEF33FFEE33FEED33B9
:20234000FDED30E7EB022617EF2BFFEE3AFEED39FDD0E0FB50130BBB000302263FED13FDB5
:20236000EE13FEEF13FFEC13FC022617EC4D6011E8497017ED33EC3304600DE4FCFFFEFD37
:2023800022E933E8330470F802263512260058046009E4CC2481500628500902263F284023
:2023A0000302263CC0E0EB4A7044B98006D0E0FB02262BEF4E701CBD8008EBFFEAFEE9FD2A
:2023C00080EBE98DF0A4FEE5F0022455E9CDF9EAFEEBFFEF89F0A4FCE5F0CE89F0A42EFFC4
:2023E000E435F0CD89F0A42DFEE435F08067EF4E7005BD80D780C3EF8BF0A4ACF0EE8BF0B3
:20240000A42CFCE435F0F8EF8AF0A42CE5F038FCE433CB8DF0A42CFCE5F03BF8EE8AF0A46E
:202420002CFCE5F038F8E433CF89F0A42CFCE5F038CF3400CE89F0A42FFFE5F03EFEE433F3
:20244000C98DF0A42EFEE5F039CD8AF0A42FFFE5F03EFEE43DFD33D0E0FB50070BBB000F06
:2024600002263FEC2CFCEF33FFEE33FEED33FD02261702263FEC5D046005E8590470030272
:202480002635122600580460F6EC4860F2EC7004FDFEFF22C860DB2481C85009C39860026F
:2024A000500602263C9850CAF582E9294B4A7005AB8202262B75F0007C1A7880C3EF9BEE6F
:2024C0009AED99400DC3EF9BFFEE9AFEED99FDE842F0DC23ACF0D0E0FFD0E0FED0E0FDABD0
:2024E0008220E7101BEB60BAEC2CFCEF33FFEE33FEED33FD022617E803F830E705C0F0754F
:20250000F000EF2FFFEE33FEED33FD40B830E7C280AA74F8CC6480CCC86480C8F582046040
:202520004FC3EB9FF5F0EA9E42F0E99D42F0E89C45F0603C501DE5825FFFE582D313CB5BAE
:20254000CBF42B5582FB50280ABA002409B9002008801DE5825BFBE582D313CF5FCFF4C31A
:20256000132F5582FF50090EBE00050DBD00010CC3EB9FF5F0EA9E42F0E99D42F0E89C45D5
:20258000F06007CC4820E701B3EC2275F020800E75F010800575F0087D007E007F0033924E
:2025A000D530D503122A43EC334010EF33FFEE33FEED33FDEC33FCD5F0ED22E5F0247EA2EB
:2025C000D513CC92E7CDCEFF22EDD2E7CD33EC3392D524814006E4FFFEFDFC22FCE4CFCE82
:2025E000CDCC24E0501174FF80EDC3CC13CCCD13CDCE13CECF13CF0470F030D5DE022A43CC
:20260000E9D2E7C933E833F892D5EDD2E7CD33EC33FC5002B2D522EC30E7100FBF000C0EEB
:20262000BE00080DBD00040BEB6014A2D5EB13FCED92E7FD2274FFFCFDFEFF22E480F8A21D
:20264000D574FF13FC7D80E480EFE709F608DFFA8046E709F208DFFA803E88828C83E709BC
:20266000F0A3DFFA8032E309F608DFFA8078E309F208DFFA807088828C83E309F0A3DFFA61
:20268000806489828A83E0A3F608DFFA805889828A83E0A3F208DFFA804C80D280FA80C6C0
:2026A00080D4806980F28033801080A680EA809A80A880DA80E280CA803389828A83ECFA9F
:2026C000E493A3C8C582C8CCC583CCF0A3C8C582C8CCC583CCDFE9DEE7800D89828A83E4C9
:2026E00093A3F608DFF9ECFAA9F0EDFB2289828A83ECFAE0A3C8C582C8CCC583CCF0A3C8B2
:20270000C582C8CCC583CCDFEADEE880DB89828A83E493A3F208DFF980CC88F0EF60010EBA
:202720004E60C388F0ED2402B4040050B9F582EB2402B4040050AF232345822390269A73AA
:20274000BB010689828A83E0225002E722BBFE02E32289828A83E49322BB010CE58229F584
:2027600082E5833AF583E0225006E92582F8E622BBFE06E92582F8E222E58229F582E5831B
:202780003AF583E49322BB010989828A83F8E028F022500327F722BBFE05F8E328F3228A0C
:2027A000838982F8E4932822BB010689828A83F0225002F722BBFE01F322F8BB010DE58284
:2027C00029F582E5833AF583E8F0225006E92582C8F622BBFE05E92582C8F222EF8DF0A445
:2027E000A8F0CF8CF0A428CE8DF0A42EFE22BC000BBE0029EF8DF084FFADF022E4CCF87574
:20280000F008EF2FFFEE33FEEC33FCEE9DEC984005FCEE9DFE0FD5F0E9E4CEFD22EDF8F528
:20282000F0EE8420D21CFEADF075F008EF2FFFED33FD4007985006D5F0F222C398FD0FD59C
:20284000F0EA22C5F0F8A3E028F0C5F0F8E582158270021583E038F022A3F8E0C5F025F010
:20286000F0E582158270021583E0C838F0E822BB010A89828A83E0F5F0A3E022500687F071
:2028800009E71922BBFE07E3F5F009E3192289828A83E493F5F074019322BB0110E5822964
:2028A000F582E5833AF583E0F5F0A3E0225009E92582F886F008E622BBFE0AE92582F8E289
:2028C000F5F008E222E5832AF583E993F5F0A3E99322BB010A89828A83F0E5F0A3F02250B3
:2028E00006F709A7F01922BBFE06F3E5F009F31922EF2BFFEE3AFEED39FDEC38FC22C3EFEC
:202900009BFFEE9AFEED99FDEC98FC22E88FF0A4CC8BF0A42CFCE98EF0A42CFC8AF0EDA416
:202920002CFCEA8EF0A4CDA8F08BF0A42DCC3825F0FDE98FF0A42CCD35F0FCEB8EF0A4FE6B
:20294000A9F0EB8FF0A4CFC5F02ECD39FEE43CFCEAA42DCE35F0FDE43CFC2275F0087582B1
:2029600000EF2FFFEE33FECD33CDCC33CCC58233C5829BED9AEC99E58298400CF582EE9BD0
:20298000FEED9AFDEC99FC0FD5F0D6E4CEFBE4CDFAE4CCF9A88222B800C1B90059BA002DCB
:2029A000EC8BF084CFCECDFCE5F0CBF97818EF2FFFEE33FEED33FDEC33FCEB33FB10D70326
:2029C000994004EB99FB0FD8E5E4F9FA227818EF2FFFEE33FEED33FDEC33FCC933C910D726
:2029E000059BE99A4007EC9BFCE99AF90FD8E0E4C9FAE4CCFB2275F010EF2FFFEE33FEED95
:202A000033FDCC33CCC833C810D7079BEC9AE899400AED9BFDEC9AFCE899F80FD5F0DAE40C
:202A2000CDFBE4CCFAE4C8F922EF5BFFEE5AFEED59FDEC58FC22EF4BFFEE4AFEED49FDEC9B
:202A400048FC22C3E49FFFE49EFEE49DFDE49CFC22EB9FF5F0EA9E42F0E99D42F0EC64807E
:202A6000C864809845F022EB9FF5F0EA9E42F0E99D42F0E89C45F022E8600FECC313FCEDFD
:202A800013FDEE13FEEF13FFD8F122E86010ECA2E713FCED13FDEE13FEEF13FFD8F022E890
:202AA000600FEFC333FFEE33FEED33FDEC33FCD8F122BB010789828A83022B1C5005E9F827
:202AC000022D10BBFE05E9F8022D1C89828A83022B28BB010DE58229F582E5833AF5830274
:202AE0002B1C5007E92582F8022D10BBFE07E92582F8022D1CE58229F582E5833AF58302BB
:202B00002B28BB010789828A83022BA95005E9F8022D42BBFE05E9F8022D4E22E0FCA3E06D
:202B2000FDA3E0FEA3E0FF22E493FC740193FD740293FE740393FF22E0F8A3E0F9A3E0FAF8
:202B4000A3E0FB22E493F8740193F9740293FA740393FB22BB010789828A83022B385005A6
:202B6000E9F8022D28BBFE05E9F8022D3589828A83022B447401FF3395E0FEFDFCA3A3A395
:202B8000E0CF2FF0E582158270021583E0CE3EF0E582158270021583E0CD3DF0E5821582A3
:202BA00070021583E0CC3CF022ECF0A3EDF0A3EEF0A3EFF022A8828583F0D083D082122B8C
:202BC000CC122BCC122BCC122BCCE473E493A3C583C5F0C583C8C582C8F0A3C583C5F0C52C
:202BE00083C8C582C822A42582F582E5F03583F58322E0FBA3E0FAA3E0F922F8E0FBA3A361
:202C0000E0F925F0F0E582158270021583E0FA38F022EBF0A3EAF0A3E9F022BB01078982E6
:202C20008A83022BF25005E9F8022D5ABBFE05E9F8022D6C89828A83022D7EBB011A8982C9
:202C40008A83D0F0D0E0F8D0E0F9D0E0FAD0E0FBE8C0E0C0F0022C125016E9F8D083D0829D
:202C6000D0E0F9D0E0FAD0E0FBC082C083022D63BBFE16E9F8D083D082D0E0F9D0E0FAD0C7
:202C8000E0FBC082C083022D7522D083D082F8E4937012740193700DA3A393F8740193F525
:202CA000828883E4737402936860EFA3A3A380DFD083D082F8E4937012740193700DA3A3C7
:202CC00093F8740193F5828883E473740293B5F0067403936860E9A3A3A3A380D88A83899F
:202CE00082E473EC8EF0A4CCC5F0CCCDF8EFA4CEC5F02DFDE43CFCE8A42EC8C5F03DFDE42A
:202D00003CFCEFA4FFE5F028FEE43DFDE43CFC22E6FC08E6FD08E6FE08E6FF22E2FC08E202
:202D2000FD08E2FE08E2FF22E6FB08E6F908E6FA08E6CBF822E2FB08E2F908E2FA08E2CBC7
:202D4000F822ECF608EDF608EEF608EFF622ECF208EDF208EEF208EFF222E6FB08E6FA0808
:202D6000E6F922EBF608EAF608E9F622E2FB08E2FA08E2F922EBF208EAF208E9F222E4937D
:202D8000FB740193FA740293F922412CF8004102B20041349A00C151C13941041506011428
:202DA000004104140141041301C12F011A00011700C130C132C12641253300412599FF419A
:202DC000259100C125C12441259A0041259B0041259201C12841253200C135C12C013000E3
:202DE000C129C12A4331DA0000004131D9004131DD000120004129AB00413152FF41314D5E
:202E0000FFC1B6C13841314C00C137412C8A00412C9300412C9700412C9600412C9200414F
:202E20002C8D00422C8B0000422C990000C15F412C0500412C0C28412C1200422C030000B6
:202E4000412C1100412C0200412C080043330500000041330800432B40000000412B4500BA
:202E6000C160492B364C6966656C696E65004E2B462001300380033105710584075A0141F6
:202E800034BE00413207004132050041320600412AFE00412B1332C161422AFA0000422BC6
:202EA0000F0000422B0303E8422AFF0000422B110000412B0600412DD000412DCE00413260
:202EC0009CFF41329AFF4132990A42320C0000C14041320E004133C60A4133C7004133C878
:202EE000004129E21E4229F100004229EC00004229EA0FFF4229FC00004129E6004229E34D
:202F000002034129E9004121C3004122840041207000C142C14141206EFF412026004121C0
:202F2000C402412210FF4121FE0041271300412765FF6050271401030300000505001C3763
:202F40000501001C37000701000002030300000201001C370306001C370301001C370101FD
:202F6000001C370102020000000804000004040500000004051C410005000000FF03FE0075
:202F800000FFFFFE1C325927690207D01C3C0307D01C3C0500141C3C0107D01C3C0407D01F
:202FA0001C3C412680FF4126FCFF41270FFF412710FF41270E004127030041270D004327C4
:202FC0000800000041270C004326FD0000004127020041270B00422711000042270400004B
:202FE0004227060000609625E900000000000000000000000000000000000000000000005E
:203000000000000000000000000000000000000000000000000000000000000000000000B0
:20302000000000000000000000000000000000000000000000000000000000000000000090
:20304000000000000000000000000000000000000000000000000000000000000000000070
:2030600000000000000000000000000000000000000000000000000000000000000000410F
:2030800032A10041329F0041329E00C144C14341329DFF4132A00041318D00502A96A81F39
:2030A000FF7F3F3F079FFFFFFFFFFF1313FF502AA6000300000001000100808080808303A3
:2030C00000C114C10FC111C10CC116C108C10AC10BC109C11AC118C11BC10EC115C110C1E4
:2030E00012C10DC117C11C412B7600412B7500412B8100412B8000412B8900C119C193413B
:203100002B8300422B730000412B7000422EA1F448C1784430E6000000004230EA000041C8
:2031200030ED00442B2600000000442B2A00000000442B2E00000000442B320000000042C4
:203140002B170000422B1900006040296400405734039874BC002B0A480000AFBB000A22D1
:203160008D017E7248038E3A947B6B01000025352F0218A9FC001B199A00006DAC000660AE
:203180000600C30DEE0388EE64DB8F01004134060041340700413405004132D8004132D61E
:2031A0000044292300000000603029290000177000003A980000753000009C400000C350B0
:2031C0000000EA60000111700001388000015F90000186A00001ADB00001D4C041292800CE
:2031E000E00C0261250086000000020064010E043641341400423415000000000000000012
:2032000000000000000000000000001C4B1C501C551C5A1C5F1C641C691C6E980500000D40
:20322000FA20000DDC7000000000020C00013F3F3F040404F1000000000E1000000E100016
:20324000000E10010204080000000000000000000000000000000000000019F819FD1A02FE
:203260001A071A0C1A111A1B1A2AC1A30014012204881220488091008000020406071C0AF8
:203280001C0F1C141C191C1E1C231C281C2D1B331B381B3D1B421B471C321C371C3C1C418A
:2032A0001C461AB61ABB1AC01AC51ACF1AE31AE81AED1B061B0B1B101B1A1B1F1B241BAB79
:2032C0001BB01BB51BC41BCE1BDD1DEF1DF400000B69400000001A521A5C1B4C1B921BF1C0
:2032E0001D271E1C7F01B166902CF0E0122C8A330B04331314331815331D17332D3033320D
:2033000034333736333C37000033255357EF855780802F5358EF80085358DF800353587FDE
:20332000855890801D5359DF8559A08015535AFE800D535AEF8008535ABF8003535A7F85E9
:203340005AB07F0CDFFE227F01B1669034977401F0903497E0602E71C171DE903497EFF0FE
:20336000918471CD902CECEFF09184903497E05401F18060DCA3E0F460D7EF30E7D3E49026
:203380003497F080CC51E87F9F71C571DE902CED71DC902CF271DC902CF3EFF0B162902CFC
:2033A000EBE0F4601BA3E0F46016902CF2E0FD541F240FA3F0EDC41354074480902CF2F0A1
:2033C0002251E87F05E5C820E2FB8FEB2251E87FD771C57FFF71C571E2902CEBEFF07FFFF8
:2033E00071C5E5C820E2FBAFEB227F01B166304F1471C171DE903499EFF09184903499E0F8
:2034000020E002C24F304F1771CD902CECEFF180600BA3E0F46006EF30E702C24F9184E463
:20342000FFB166A24FE433FF2290325C122BA990325C122B1CB172903260E06F6038D15D78
:2034400071EAEF6004D14980F7917851E8902CEEE0FFD140600790325CD1A671C590325C01
:20346000D19C71C590325C122B1CE471C5903260E0FFB160D322C3227F01B166D24F51E83B
:203480007F0671C5F1F6EF70FB902CF2E0F4600A9034967406F0F14B70FC902CF0E0122C0E
:2034A0008A34BD0434C51434CA1534CF1734DF3034E43434E93634EE37000034D743571063
:2034C000855780802F43581080084358208003435880855890801D4359208559A080154339
:2034E0005A01800D435A108008435A408003435A80855AB0903496740CF0F14B70FC22907F
:203500002F56122BA9902F5A122C12D15D71EAEF6004D14980F7917851E8902CEEE0FFD1CE
:20352000406007902F56D1A671C5902F56D19C71C5902F56122B1CE4801C902F5DF1886087
:2035400019902F5AF144600C902F5AE41269301227408001E4FF71C580E09184E4FF8006FF
:2035600071C59184E4FFEFB4010443FE202253FEDF22903257122BA9D15D71EAEF6004D1F4
:203580004980F7D1386007903257D1A671C5903257D19C71C5903257122B1CE471C571DE9E
:2035A00090325BEFF0B16290325BE0FF22902F5F122BA9902F63122C12D15D71EAEF60048C
:2035C000D14980F7D1386007902F5FD1A671C5902F5FD19C71C5902F5F122B1CE471C5903D
:2035E0002F66F188601571DE902F63122BF2EF1227A8902F64E412519780E49184E4FFA1DA
:2036000066D15D71EAEF6004D14980F7917851E87F0171C57F0371C59184E4FFA166902C6C
:20362000EBE020E01251E47F3D71C57F2A71C57F8071C57FA6B160227F01B16651E87F03C8
:2036400071C5902CF1E0640222E51530E20EE51520E509E51530E0047F01F1962275FF0250
:20366000E5E430E10675E40675E40322903498EFF0902CF9E06402702251E4903498E07FD5
:20368000AB60027FB971C59184903498E0902CF8F070047F1EDFFEE4FFB16622122B1C78DF
:2036A00008122A78E422122B1C7810122A78E422902888EEF0A3126F99902890122BA99014
:2036C000288EE0FFA3E0902894CF8069902894E0FEA3E0FF4E6064C3EF9440EE94004006C2
:2036E000A37440F08005902896EFF0F153FF126D31EFF0902890122B1CB1AD902896E0FFD3
:20370000C3902895E09FF0902894E09400F0902890122B38902896E4FCFDFE1228F19028B1
:2037200090122BA9F13BF153FD126F88EDF01219F3902888EEF0A3EFF08091902888E0FED3
:20374000A3E0FF22122BF2EA494B22903496E014F0E0227B017A287997902896E022D15D0A
:2037600071EAEF6004D14980F722E075F002A42481F9740F35F07B02FEAF01E4FCFDA1729C
:20378000F0902CEBE0FFF42274FFF5F012285945F022EFF07F01EF600A123CC8E4FD124E4C
:2037A000F68009F1D0124F9EE433FF227F012290043F122C12C252E4FFF196BF010B9004F0
:2037C0003F122BF212451B92527F01F196A25222F1DBEF7005123CDA80F622E4FF123E776E
:2037E000E054F0FEBE40037F00220FEFB403EE7F0122E4FFA166E5C85404FF22902CEDE027
:203800001227A8902CF2E09000011227BA902CF3E09000020227BA7A2C79F07F03F1337A82
:203820002C79F97D017F081219E97B017A2C79F67D027F0931E27B017A2C79F47D027F0B8E
:2038400031E2902CF4E0FEA3E0FF4E6006BEFF1BBFFF18902CF9E024FD600304700431E53C
:203860008009902CF4E4F0A37440F0902CF9E024FD6003047008902CF17403F08006902C09
:20388000F17402F0902CF0E0122C8A38A70438B21438BA1538C21738D83038E03438E836A2
:2038A00038F037000038CD75FF015353EF8553FD804775FF015354EF800E75FF015354DF6A
:2038C000800675FF0153547F8554C9802C75FF015355DF8555CA802175FF015356FE801686
:2038E00075FF015356EF800E75FF015356BF800675FF0153567F8556CB1234847F1131D428
:20390000E4FF12366C123347902CEE7402F0902CF2E0247F600904701631DA740A8007122E
:20392000361E31DA7458F0902CF17403F031E5902CF3E0F4600221D1902CF6E0FEA3E0FF59
:2039400064104E7006902CF3740EF0EF64204E7006902CF3740FF0EF64404E7006902CF3AF
:203960007410F0EF64804E7006902CF37411F0E4B5070AEEB40106902CF37412F0E4B50700
:203980000AEEB40206902CF37413F0E4B5070AEEB40406902CF37414F0E4B5070AEEB4087C
:2039A00006902CF37415F0E4B5070AEEB41006902CF37416F0E4B5070AEEB42006902CF32D
:2039C0007417F0E4B5070AEEB44006902CF37418F0023601EF4420F5FE227F1031D4902CBE
:2039E000EE220219E9902CF47401F0A3E4F0221117F1C41219D512527F9002B3E064017F3C
:203A00000060027F01121A3E121A431219AD126E97121976F12CE0FE4FFDA3E0FC4DFDA3A8
:203A2000E0FB4D600BEE5FFFEC5FFFEB5FF47002D1DD90121CE0FF540324B6F582E43402A0
:203A4000F583E06F9002B1F02275FF0275E404E4F5E4C22E75FF02901215E0603CE5E65402
:203A60000364017034121A661259BF4020901222E0600DE014F0700812189AE4901215F062
:203A8000901215E070026110124B18611012189AD22EE4901215F0807712189A125DA49019
:203AA00002B3EFF0901200E0B47A14901214E0B49C0D9002B3E0FF64056004EFB4032EE412
:203AC0009002BCF09002BCE0FFC394405013E42FF582E43412F583E4F09002BCE004F080DF
:203AE000E3901200747AF0901214749CF01219EE7B017A1279107D017F011219E97A1279EC
:203B0000117F21F1337A1279127D017F221219E9121A6B125DA41250DB9002B3EFF0121950
:203B2000DF1250969002B3E0FFB40602800C302E047F0280059002B3E0FF121A7FEF24FFF9
:203B4000B3925175FF0253E6BF9002B3E064016005E4901215F0125122121A7031EF901204
:203B600015E0700F20510C121A847B017A25799D121A2090121DE030E0028003302E057F11
:203B800001123796D2AF30517C125261124BAC121AA21219E440F29002B2E06040D1B6EFB0
:203BA0007004F1E54037E51470FCE51520E503124F9E121971EF70FAF1D35005125D6750AA
:203BC000057F0112366C9002B2E0B40204E4FF80099002B2E0B403057F01124B3591DAE520
:203BE0001530E1A5D1C84002E4F0E51520E50791C87D01124EF69002BC91CB9002B5E0FD4A
:203C00001219D08084125026124FF35002D1DD9002B2E0605C902533E07056D1B6EF700471
:203C2000F1E5404DE51470FCE51520E50A90121DE020E003124F9E121971EF70FAF1D35009
:203C400005125D6750057F0112366C9002B2E0B40203E480189002B2E0B403047F01800EBA
:203C60009002B2E0B4050A9012157401F0FF124B35125261124BAC121A989002B0E0700488
:203C800091DA8015125062FF9002B0E0FEC3EF9EC394064002E4F0D2AD121807E51530E1C3
:203CA0001FD1C84002E4F0E51520E50791C87D01124EF69002BC91CB9002B5E0FD1219D03A
:203CC000121A5712508181059002B4E075F0AA9002BF122BE6AF82AE8322E4900449F1BC5D
:203CE00075F0E5E55ED17BE054F064407002C132E4FE75F0E5EED17BE0FDB4010990044ADF
:203D0000EEF0E4FF8023EDB4020B90044AE0B4FF04EEF0800F75F0E5EED17BE054F0FDBD4D
:203D200080027F010EEEB403C9EF600690044A74FFF090044AE0F47002C132125329500278
:203D4000C132E51530E102C13290044AE0900004D19230E408900006D19B549FF090044ADC
:203D6000E09000B8D192540FFEBE05089000BCD19B30E11490044AE0900003D1A420E528BC
:203D80009000BBD1ADB4FF2090044AE075F0E5900005122BE6C083C082E04401FFA3E0D0CB
:203DA00082D083CFF0A3EFF090044AE0FD900005D18AFEA3E0FFC006C007ED75F0E5A42436
:203DC000B3F9740035F0FA7B01C002C00190044AE0FF9000D9D18A90042CF0EF75F0E5A497
:203DE0002409F9740035F0FAA3122C1290044AE09000B2D1A4900430F09000DAD1AD900472
:203E000031F0E4A3F0D001D002D007D0061253F4502090044AE0F55E75F0E5D17BE04440E6
:203E2000F09004497401F09022A2F0E51530E202D322E51530E2397F04D18175F0E5E55E62
:203E4000D17BE0FF54F06440702175F0E5E55ED17BEF540FF075F0E5E55ED17BE04480F036
:203E6000E55EF13D7B011219A880057F01123796900449E024FF2275F0E5EF900001022BA5
:203E8000E6C2AFEFF45215D2AF2275F0E5122BE6E022FF75F0E5122BE6E02275F0E5EF12B6
:203EA0002BE6E022FF75F0E5122BE6E02275F0E5EF122BE6E022E4FFD177E060037F002214
:203EC0000FEFB403F37F01227F02D1819002B4E09002BCF09002B404F0C3940222E4FF12B7
:203EE0003796EF60467B017A0279B61237AF9002B6E0C394C040EE7B017A0279B81237AFB3
:203F0000F12CE05FFFA3E05FFFA3E05FF460E890121DE030E0057F01123796E490121CF0A2
:203F20007B017A0279B6E0FD12197B229002B6E0FFA3227B017D011219E97B012275F0E5D3
:203F4000A42401F9740035F0FA22900447EFF1BCFEFD75F0E5EDD17BE0FC700C900448E0E1
:203F6000B4FF02EDF00F8006EC30E0027E010DEDB403DF900447E06401600DEFC3940250E8
:203F800007EE7004A374FFF0900448E0FFC394035023EFF13D7B017DE5E4FF12196C900421
:203FA00047E04410FFA3E0FE75F0E5D17BEFF0EEF13D7B01227B007A00790022F0A374FF41
:203FC000F0E4FF22E4FFD177E4F00FEFB403F7E4F55E22900001740193B40007E493B41851
:203FE00002C322D3229002BDE0FEA3E0FF1252EED3EF94C8EE940022FEAF01E4FDAB05E4FF
:20400000FCFD903260EBF0023429FEAF017B007A0079929031BA7404F09031B71138C00732
:204020009031B7122BF29031BAE0FF902F66E4F0A3EFF0D0070235AD122C12E4FCFD22906A
:2040400031081138C007903108122BF290310B126D6AD007902E483142122C12902E4C12AE
:204060002BF2902E4F124A15902E48122B1CF1FB50022118902CF5E024FFFF902CF4E03458
:20408000FFFEE4FCFD902E48126F49902E51EEF0A3EFF04E60393138902CF5E09FFF902CCC
:2040A000F4E09EFE902E51F0A3EFF0902E4F31499FEC9E5003125710311A31593142122B0E
:2040C000F2E94A6004315080427E007F00803C902E4FE0FEA3E0FF4E603C902CF43149EFEB
:2040E0009DEE9C400A902E51ECF0A3EDF08007902E4F126F8FF0311A31593142122BF2E9F0
:204100004A6004315080047E007F00902E4DEE8FF012284380B9D322C322902E4C122BF2AE
:20412000902E51E0FFA3E0902F5DCFF0A3EFF0902E48122B1C1234FF902E51E0FEA3E0FF9E
:20414000C322122BA9902E4C22E0FCA3E0FDD322902E51E0FEA3E0FF22902E50E09FF09079
:204160002E4FE09EF0902E48122B38E4FCFD1228F1902E4822902BBE122BA9E4F5FF75BB42
:204180000575BB8575FF0175D502205405F13D125BE975FF0143D520305402413DE4F5FF1E
:2041A000538EF7438E077D04E4F5FF8DBCF5FF43B102E5B130E2FBE4F5FFAFDFEFFEACDE43
:2041C000ECFBEBFFED25E024BCF582E4342B124C7EF0E4F5FFF5FF53B1FD0DEDB40CC990D6
:2041E0002BBE71DDFF7809122A78A3EEF0A3EFF0E4FDED25E024C6F582E4342BF583E0C3BF
:2042000013FAA3E013FBF123E0C313FEA3E0132BFFEE3AFEF123EEF0A3EFF0ED2404901227
:204220000DF0EDC394075015CFEDCF0DEFF124313B902BC3E09F902BC2E09E50B5E4F5FFF4
:20424000758EC8F5FF90120DE0F5BCE4F5FF75BB8075FF01F5D522902B8B122BA975FF02D4
:2042600043E180125C34F194902BA0122BB5002DC6C0E4F5FFF5A490120EF0A3F0902B9B79
:204280007402F0F1E9FFF595EF14601814602624027036902B8B71DDFF902B9C122BA99014
:2042A0002B978020902B8F71DDFF902B9C122BA9902B98800F902B9371DDFF902B9C122BB7
:2042C000A9902B99E0902BA4F0126027902BA4E0700FF5FFF59675FF0175D70975F4188011
:2042E0005C90120EE004F0902B9BE0124FEB902BA071DDFF902B9CF1F1E0FBC3122A6750EA
:204300000A902B9C71DDFFA3122BA9902BA4E0FF125EA8902B9AE0FFA3E0FDA2579255126A
:204320005FD5A371DDFF90326C122BA9902B9BE0FFD168902B9BE071D0FF125C87127006E4
:20434000600241837402F0F1E9F595E5F454077017902BA071E8F10B902B9BD1FDF5831254
:204360002BA971CFFF125C8712700670DA75FF0375958090120EE0D39401400343F420A22E
:20438000579256125F07902BA071DD2420FFEE344E910AFCE4FB7A04F9F871F8F10BC254AA
:2043A0003175E4F5FFE5BD54F84404F5BD9012137401F07E127F01E4FDEF2DF582E43EF5E2
:2043C00083E0FC901213E02CF00DEDB412EB22EB25E025E02401F582E43412F583E0FCA34E
:2043E000E0FDA3E0FEA3E022FF7E04FDFCE0F8A3E0F9A3E0FAA3E0FB12290CE47B7DFAF9DB
:20440000F8122997EF2401FFE43EFEE43DFDE43C22903122124B5EEBF09031287401F0C2B6
:2044200058F1B3F1185005E5FC20E6F7F16ABF0108E4F5FC75FC408007F16ABF0202D32201
:20444000125AEE903123E0FF1261CE75FF0153D5DF53FAFB903122E0FF124EDB903123E079
:20446000903122B4080AE071D024529107FC8004E071D0FF125C87903124E0FF12622775FB
:20448000FF0175FF03759B04F1B375FC42E5FC20E104F11840F4903125E0F075FF03E59B6A
:2044A00020E704F11840F4E59B20E70D75FF03759B1F125C34D258804FF111125C5090315E
:2044C00023E0FD90120FE05D701C903122E0FFF11112603490120FE0FF903123E0FEEF4E69
:2044E00090120FF071AD125BE97B017A317926125C16500FC3903127E09420903126E09464
:204500000340E6F111125CDAF1443058028119903128E0B40103D38001C322902E53125C96
:204520007E902E59122BB500000001902E5D7401F0F5FFE5D554C07005124FC65002C322DE
:20454000E4F5FF53967F75FF0175D504F13D75FF0143D508E4F5FF5394FBF5FF53847FF59C
:20456000FF7598FF902E57E5F4F075F49C75FF01A3E5E4F075E4257B017A2E795D125C5046
:20458000902E5DE064016002C146F5FF902E567414F0902E5971DDFF7801122A9F902E5903
:2045A000122BA9E5A730E1FB43A702902E5971DDFFE5A730E005E47B018002E4FBFAF9F8E0
:2045C000EF4BFFEE4AFEED49FDEC48FC902E59122BA9902E56E014F070B8902E5971DDFF88
:2045E0007810122A787B6D7A4E79C6784112290CEF2439FFEE3430910AFCE4FBFA7901F811
:20460000122997EE547FFEE4FDFC1261C1902E5971DDFFEB6FFFEA6EFEE8CDEFCDCCEECCEE
:20462000ECFF902E53125BE0EF1227A8902E53125BE0900001ED1227BA90120FE030E606E5
:20464000E4F5FF75968075FF01E4F5D5902E57E0F5F475FF01A3E0F5E4125EF6902E5DE0C4
:20466000B40103D38001C32290326BEFF0E4A371E8F10B90326BD1FDF583122BA990121056
:20468000E0FF64806076EFC3947F503AEBD1FFF583C083C08271DDFFEEC0E0EFC0E090126E
:2046A00010E075F004A4AEF0FBCAEECAEA3395E0F9F8D0E0FFD0E0FEC3EF9BFFEE9AFEED43
:2046C00099FDEC98802E90326BE0D1FFF583C083C082F1F1E0FB901210E0F40475F004A4E4
:2046E000FFAEF0EE3395E0FDFCEB2FFFEA3EFEE93DFDE83CFCD082D083122BA922E0FB255F
:20470000E025E02401F582E4341222FC7801022A787B017A3179282275FF03E591C330E702
:2047200001D322ED25E024C4F582E4342BF583227FC87E00F14D75FF03439180227F3FFEA9
:20474000F14DF13675FF03E59120E7FB2275FF03D3EF9402EE9400400874FE2FFF74FF3EF9
:20476000FEEFF592EE540FF591227FFAF132E5FC30E604F11840F7E5FC30E6037F032275E2
:20478000FF01E5D530E6037F0222E5D57F0030E7027F0122126FE253DB7F75FF0175D502DE
:2047A0007F14F132F144126FE243DB8075FF01E4F5D5227FE87E03F1BBE1369032D9126E02
:2047C000847A3279DB125C1650149032DBE0FEA3E0FF9032DAE09F9032D9E09E400A903230
:2047E000D9E0FEA3E0FFF14D2275FF03902B9BE022E0F8A3E0F9A3E0FAA322902A05122BBF
:20480000A9902A09122C12E4902A2CF0D3902A0DE0941E902A0CE094004001227B017A2A39
:20482000790E902A0CE0FFA3E0902F66CFF0A3EFF0902A05122B1C1235AD902A09122BF265
:20484000E94A600B902A2CE0F5821180FF80027F00902A2CE0240EF582E4342AF583E06F74
:204860006002C322902A2CE004FFF0D3902A0DE09F902A0CE0940050C122122BF21E8E8255
:20488000758300022759903188122BF2903067122C12903188122BF290306A122C127B0141
:2048A0007A2279119030643136E58F20E0FB31C1538FF075FF017E10903067117AF593EEE9
:2048C00070F67E10903064117AF594EE70F67F0111E831F4EF70FB7E1090306A122BF21E5B
:2048E0008E8231D5EE70F222EFB4010531CBF58F2275FF01E58F54F04406F58F22903251B5
:204900003136E58F20E0FB31C1538FF075FF01E4FF903251122BF28F821180F5930FEFB487
:2049200010EFE4FF903254122BF28F821180F5940FEFB410EF22122C1275FF012290306D3E
:204940003136E58F20E0FB31C1E58F54F04402F58F75FF017F1090306D122BF21F8F82116C
:2049600080F59431B28F82758300E41227BAEF70E531B8EA540FFD31B2EAC4F854F0C8E976
:20498000C4540F4854F04DF59231B8E9F59875FF0131B2E9F59675FF0175991075FF0175E8
:2049A000971075FF0143912031CBF58FE58F20E0FB22903073022BF275FF01903070022BB2
:2049C000F275FF01538F0675FF012275FF01E58F54F6440122758300E5930227BA90342917
:2049E0003136E4FF903429122BF28F8231D50FEFB410F12275FF01E58F5401FF2290310F36
:204A0000124038C00790310F122BF29031125115D0070247FBE0FFA3E0902A0CCFF0A3EF79
:204A2000F022E4F97D0CAC0109EC90180E93FC0FEFAA0670010E14F5828A83ECF0DDE77F33
:204A400003228F828E83E4F0A37404515574365155A3E4F022F08F828E83A3A32275FF02A1
:204A600075E40475E40175E4022275FF0275E404E4F5E422900433715EEBF090121DE054EC
:204A8000306006715B5002C322900433E0B4040BA351DD9004337403F08025900433E06464
:204AA00005701890121DE090043430E50651DD7F1F800451E5E4FF7153800590043451E537
:204AC000900433E09002B2F0900435E0901222F01252D39002BDEEF0A3EFF0D322E0FB7D6B
:204AE000017F018006E0FB7D01E4FFEB600875FF0153CDFD800675FF0143CD02ED600553DC
:204B0000FBDF800343FB20EF600775FF0243E1402275FF0253E1BF2290121DE07B027D0163
:204B200030E5087F0151EB7F1F8006E4FF51EBE4FF71537F0143FB1075FF0243E640EF60B6
:204B40000D75FF02E5E120E7FB43FB0D800343FB0E80FE75FF028FE32280F8A22E22EFF01F
:204B6000A3EDF0A322903266EEF0A3715EEBF07FFFA3E0F9E9C3940C5023E9719EE0FCA36D
:204B8000E04C7016AF01903266E0FC126EEAA3E0903265F09134E904FF220980D72275F0F1
:204BA00007A42432F582E43428F58322900000E0605FE014F0E4F55DE55DC3940C50EDE593
:204BC0005D719EE0FEA3E04E6043E55D719E91DD45F070399112F583E0FF600AF46007912A
:204BE00012F583E014F09112F583E06010E55D9186912DFFE55D719EEEF0A3EFF091204E16
:204C000060089120AA06F9122CDD123649055D80A722E55D75F007A42438F582E4342822F4
:204C2000E55D75F007A42436F582E43428F583E0FEA3E022903262ECF0A3EDF0AA07AF0333
:204C4000EF70010FEF75F00AA4FFAEF0EA9186917EF0EA719EEEF0A3EFF0903265E0FFEAFD
:204C60009114F583EFF0903262E0FEA3E0FFEA75F007A42436F582E43428917EF022F58310
:204C8000EEF0A3EF22EF75F007A42434F582E434282291C550109185F583E4F0A3F0EF7147
:204CA0009EE4F0A3F00EAF062291C550159185F583E0FCA3E0FD4C6009EF719EECF0A3ED46
:204CC000F00EAF0622E4FE1FEFC3940C227E1A7FC07BFF7D6490326A7402F0616574FFF598
:204CE000F0022843C0E0C0F0C083C082C0D075D008C0FF12476A8F18E51864027053E5145D
:204D000024F8604324076002C13D90042591DD45F0702AAB1CAA1DA91EF17DAD16AF1F12ED
:204D2000569BE4FB7D01FF12559575FF0012571743FA0475FF00D168751408C13D43FA0478
:204D400075FF00D168C13DC2EB751400431504C13DE51864016002C13DF1E44002C13DE55C
:204D600010702B851282851183E090044BF0E0FF64556004EFB4540BD22E1250649004242B
:204D8000F0C10D75100275FF0075D908C13DE51064027058D14AF583E090044BF01262032A
:204DA00012580E900413EFF090044BE0FFD394094025900413E0D39402400CEFD394AA7FA7
:204DC0000040027F01800D90044BE0D394407F0040027F01EF6004D154803290044BE0FFF5
:204DE000F51675FF008FD97510038051E5106403704BD15475FF00900413E0C39403E5D32A
:204E000050055402FF80035401FFEF6004D16F802CC259D19575FF00F174E5D120E0FBC205
:204E2000EB431502751000900413E0B403091516D14AF583E516F09002B5E516F0D0FFD0E7
:204E4000D0D082D083D0F0D0E032E5122407F582E4351122302E08C22E125CCC1258B32287
:204E6000D1DB43FA04E4F5FF53D1FD43D10122C259D195F171E5D120E0FBE4F5FF75D9015A
:204E8000900413E07F00B403027F01D160D259D195E4F5102290349BE5F4F0E0547FF5F442
:204EA0007F827E001247B71247185005E5FC20E6F630590890349BE04480F5F41247B31225
:204EC00047185005E5FC20E6F675FF01E5D520E702C322E5F4D330E601C32275FF01E5D54D
:204EE00030E602C322E4F5FF439A80EFF1EBE4F5FF539A7FD322900439EEF0A3EFF0E51456
:204F0000706EF1D6F1C65004C259D195900439E0FEA3E08E11F512AE11AF127DAA125E6114
:204F2000E4F5FF75D901F510E5155421602BE51530E504E4FFD1DBE490043BF090043BE057
:204F400004F0125A1BEF600990043BE0C3941040EB7F02121AA75315DE900413E07F00B4E9
:204F600003027F01D160D259D195D2EBA22D92ED22E4F5FFE5D154FE4402F5D122E4F5FFD7
:204F8000E9125E82EA540F42D622E51520E50BC259D195F171E5D120E0FBE4F51022E5140D
:204FA0007022F1D6F1C65004C259D195F1CEF171E5D120E0FB4315205315FEE4F510A22DA4
:204FC00092EDD322C322E5F4C330E701D322125C347F08021AA7C2EBA2ED922DC2ED22E433
:204FE000F51480BAE5F754C024FF2233333354F8F5F42290121CE07012123F2CE04FFFA3DB
:20500000E04FFFA3E04F7003D38001C3229002B1E064AA2411FFF022AE07110DEE04FEEFBB
:205020008EF084AFF02230500C902533E07006FF121A4DC250113A0219DA302E241164FF23
:20504000900424E0FEEFC39E400AEF9ED394024010C22E22900424E0F42FD394014002C2A1
:205060002E22C2AD902886E0A3E0229002BAE0FCA3E04C700A9002BAEEF0A3EFF0D322C3D9
:20508000229002BAE0FEA3E0FF4E6009CAEECAC9EFC9122CDD22E4F557F558F559F55A75BC
:2050A000FF0185FD5375FF0185C95475FF0185CA5575FF0185CB5622EF11BFF0020000906D
:2050C0001221F090349A22901221E0FFF4600590349AEFF074FF11BFE0FF22901221E0FE10
:2050E000640690349A6004EFF08008EEF090122174FFF090349AE0FF22EFB40109D2AD7519
:20510000FF0143AE4022C2AD75FF0153AEBF2275C80122E5C85402FF75C80222E5C85401B1
:20512000FF2275FF02D2ADD2BD75FF02758E71755B0975FF02E58E546F4480F58E22C0E052
:20514000C0F0C083C082C0D075D008C0FF75FF02E58E30E42875FF02E58E54EF4410F58E56
:20516000900000E004F0E55B30E0020531E55B700A755B0990288631978002155B75FF0242
:20518000E58530E404319D055CD0FFD0D0D082D083D0F0D0E032E475F00102284375FF027B
:2051A0004385102231C3319DC239E4F55CC23A2230390F31C3319DE4F55CD23A75FF0243B1
:2051C00085802275FF0253857F22AB07AA0631C3319DED4C70050DBD00010CD3ED94FFECD1
:2051E0009403500AEDF586EC4430F5858052D3ED94FCEC940F5017EDAE047802CEC313CED9
:2052000013D8F9AC06F586EC4434F5858032D3ED94F0EC943F5016ECC4F854F0C868FCED7F
:20522000C4540F48F586EC4438F5858013EDAE047806CEC313CE13D8F9F586EE443CF58539
:2052400090342C5159D23AE4F55C75FF0243854075FF02438580D23922AF03EAF0A3EFF0FC
:2052600022303A13E55C600F155C90342CE0FEA3E0FF4E6002517822AA06A907022CDDE434
:20528000F55CC23A22E4FB7D01E490326AF0024B65903114122C1251C251C8AE04AF059049
:2052A0003119E0FDA3E0FB518951C2EF1227A851C2122740B4FF04E41227A851C2122740F8
:2052C000FF22903114022BF2122740FF124C92E40227A8A2AFE433FFC2AF902886E0FCA307
:2052E000E0FBAA04EF24FF92AFAE02AF032290342EEEF0A3EFF051D390342E1241499FECBF
:205300009E5009C3EF9DFFEE9CFE801390342E7120FCED2401FDE43CFCED2FFFEC3EFE221E
:20532000E0FCA3E0F4FDECF422124FC65004713A4003302E03D38001C322E5F754E024FFE5
:2053400022AF14EFC36001D322EFC3940E5005900415EFF022E517540FFF22E517C394F04A
:20536000501F5317F07184FE740FC39F4005EE940E400543170D8003EF4217E517540FFFE2
:20538000227F0022E517C4540FFEEF9018F0932E227184FFC3940E40027F0DEF9018D2939C
:2053A000FF22EF30E303AF1322AD1B202F04EE30E00BE517C394F05020D10D8018E51A6037
:2053C00006FDE4F51A8012E517C394F0500BE517540FFF60047191AD07AF052243150153AD
:2053E00015DF71A2D1A84004E4F514225315FB124E62D322900427EEF0A3D1F9C2EBE51414
:205400006002A177E51530E202C322124FC65005C259124E95124F71E5D120E0FBE4F51027
:20542000C22E900428E05407C39403E494005022900430E0FF90042CE02FFFE433FED3EFF9
:205440009440EE648094804009431504A22D92EDD32290042D122BF2CFE9CF8A118F129067
:205460000430E0F516AE11F120B1C98B1C8A1D891E90042CE0F51F900427E0FCA3E0FD54AF
:20548000606029900431E0FFD136B185FB7A00900425F1067D171227DCEF2BFFEA3EFEEF46
:2054A0002414FBE43EFA7D027F01A15B900427A3E05407900414F0751408B1C9124F7D90F8
:2054C000042CE0FFAD16D19B900414E0640370267B01FDB182B1CF500AB1C9E9D183740157
:2054E000122786E4F5FFF117B1852428FBE433FA7D03E4FF8065900414E06402701AB17F8F
:20550000B1CF4002B1FBD191F5D2B1852414FBE433FA7D027F018043E4B17FB1CF4002B131
:20552000FBE4F5FFB1F07F0560027F0AEF547FFFE5D254804FF5D2E4F5FF43D280B185FD86
:205540007C00B1F07E0060047F0A80027F05D1FFFEEF2DFBEE3CFA7D017F01F13C900427CE
:20556000E0FEA3E0FF71DC4006A22D92EDC322A22D92EDD2EBD322A22D92EDD2EBC322FB1A
:205580007D01FFB195900429122BF2E92407F9E43AFA022740E4F5FF75D102E5D120E0FBFD
:2055A000E4F5FFF5D1EF6008E4F5FF43D2808006E4F5FF53D27FEB6006E4F5FF43D104ED59
:2055C0006006E4F5FF43D10822900429022BF2FF900430E0FD90042CE02DFDE433FCED24E5
:2055E00001FDE43CFCD3EF9DEC6480F874809822900427E0FEA3E044104E22900429122BE2
:20560000F2E92407F9E43AFA74FF022786900415E0FDFFC3740ED18AEFC4F8540FC868FFEF
:20562000EEC454F048FEE51754F0C39FEEB1E97F005002AF052290043CF10E751401E4FB25
:20564000FDFFB1957B017A047916124F7DE4FD7F02D19BD191F5D29004167455F090043C77
:20566000E0900417F09004147402F090043EE090042530E507E4F0A3743CF022E4F0A374F6
:20568000F0F0222407F9E43AFA229FFFE49400FE22E4F5FFE5D25480440A22E4F5FF8FD466
:2056A000F5FFCFEDCF8FD522900437EFF0900414E024FD6011047007D1EF7404F08012D11B
:2056C000EF7408F0800BE4900438F09004367402F07F01121AA7900438E0FF900436E0FD6F
:2056E000A3E0FBE4903125F012441150E9D3229004387401F090043622EFF0A3022C12EF0F
:2057000025E0FFEE3322E0FEA3E0FF7C0022EFF0A3ECF0A3EDF022E5D254804414F5D22278
:20572000E4F5FFEFF5D8E4F5FF53D60FEE540FC4F854F0C8E4C4540F4842D622900442EF5A
:20574000F0ED24FE60191460262402703BEB2402FFE43AFE7C007D501227DC7D60801EF170
:20576000B0C333CE33CED8F9FF7C007D28800EF1B0C333CE33CED8F9FF7C007D641227EE7B
:20578000900443EEF0A3EFF0900442E0F1BBC083C082122B38900444E02401FF900443E0E3
:2057A0003400FEE4FCFD1228F1D082D083022BA9EB2401FFE43AFEEF78032225E025E0244F
:2057C00018F582E43404F58322EFF1BB122B1C022B02E51754F0C4540F2FFFC39410400223
:2057E0007F0FEF9018E093FF227E10EE60091EEE9018E093B507F4EEC3940E40027E0DEE26
:205800009018D293FF22C2AFEF4215D2AF22EF24FE600C24FE600580007F01227F02227FB8
:205820000322900445EFF0C25A316BD23B900445E0903378F0D23CA3E4F0A3740DF011B385
:20584000E4900446F0124FC6503E900446E07038E5F754C060EF11A011A0900446EFF0BF6A
:20586000551211A090044691C56F90044670147402F080D1900446E0B454057433F080C5B9
:205880009004467401F080BD900446E0B40207C259124E95800091CC11B3900446E0FF2289
:2058A000E5F720E008E5F754C070F5FF2243F701AFF92275FF01E5D520E702C322C25A311F
:2058C0006B203B02215853F4DF903378E0FF124EDB75FF0143D810303C0543F440800353AE
:2058E000F4BFE4F5FF53F5F0903379E0FAA3E0FBEA42F5EBF5F6D25A316B124730E4F5FF31
:20590000E59320E60512471840F3303C5CE5F430E3047D288010E5F430E2047D288007E573
:20592000F430E1027D28318C7F2812473212471840FB7F78124732124718502D319350F7A5
:2059400031BAEFC39D50F0319350ECE5F720E5E7C25A316B318C80DF53F4BF90120EE0D3C8
:205960009401400543F42051EED322AFF4EF547FF5F4305A05EF4480F5F475FF01E5D520FA
:20598000E702C322E5F4D330E601C32275FF03E4F5912275FF01E5E43322E4FFE5F754C028
:2059A0006002801675FF01E5D530E30D319350F431BAEF60EF319350EB22910CAFD92253B4
:2059C00015FEE51530E5057F01124EDB511BEF70FB7F02121AA77F01112290044CEFF0BF9A
:2059E0000202801390044CE0B43311E4F07F011122BF020D90044C7401F08005E490044C75
:205A0000F090044CE0700D124FC65005C259124E95124FCE90044CE024FF22E49032E1F022
:205A2000A304F0E49032E4F0E5FA30E1FB75FF01E5D530E7037F0022E4F5FF75E50851EE07
:205A4000E5D530E61A75FF019032E3E5DAF0E4F5DA75FF01E5D630E3FB9032E47401F07522
:205A6000FF03759B0475FC4175FF03E59B30E7FBE4FB75FF038B951243CFFF91870BEBB4FA
:205A800003F075FF03759580E4F5FF758EC871E975FF0153D5FB318C7F1412473212474405
:205AA00075FF0143D5049032E4E07008318C1247301247447B017A3279E291DA9032E2E002
:205AC0009032E17006E04404FF8002E0FF9032E1EFF090120EE0B4010675FF0143D8107543
:205AE000FF019032E3E0F5DA9032E1E0FF2275FF0153D8EF22E5F730E50FE5F754C0700598
:205B000012471840F0318CC322D3229032E9EFF0A3917E75FF0112476AEF64016002C3223E
:205B2000E5F430E602C3227FE87E0312474D12473651F5400122C259124E959032E9E0FF2F
:205B4000124EDB53F4DFD259124E957F787E00718D75FF0153E4BFE5E430E7FB910C7F8A65
:205B6000910430E60571DDE4800775FF0171DDE5D91227A875FF0143E44090120EE0D39487
:205B800001400343F42051F5400122D322CDEFCDCCEECC71D2FFAB94EF4B912CCBEFCBFAC6
:205BA000E59130E71E71D5FFA994E9F582EF4582FFEB2DF582EA3CF583C3EF9582E5F09543
:205BC0008340DDE59120E709CEECCECFEDCF1247402275FF03AF93EF75F010A4229032EA42
:205BE000E0FBA3E0FAA3E0F922E4F5FF75C2E17F1E910430E707E4F5FF75C2A122E4F5FFC5
:205C000075C28122FE718D90120FE02275FF01E4F5EA75EAFF2271D2FFAD94EF4D912C8F38
:205C2000F01228D2E591C330E701D32224FBFFE5F034FF22E5FA30E1FB75FC8075FF015336
:205C4000D5EFE4F5FC75FC40318CE5FC20E6FB22903375917E7F017C127D01E4FEED2EF574
:205C600082E43CF583E02FFF0EEEB412F0901213E06F600990337571E0E41227A822EBF092
:205C8000A3EAF0A3E9F0229032DD122BA975FF019032DDA3E0FDA3A3E4FFFEE4FC7810122F
:205CA0002A788FE19032DDA3A3E0FEA391BB8FE29032DDA3A3A3E0FF8FE322E4FFE4FDFCF4
:205CC0007808022A78EFF090121CE022C23BE4903378F0C23CA3F0A3F022C25375FF0375AE
:205CE0009B1F75FF0390120FE0FF20E71BE59A540FC394024012EF4480F0E4F5FF75C2A1E1
:205D000043FC0475FF03D253E5FC30E609E59A540FC3940540CCE5FC30E611E41227A87518
:205D2000FC80F5FC75FC40E5FC20E6FB3053031243AD22900425E0A3E0FF22E4FFFEFDFCA2
:205D4000900418B15090041CB150900420022BA9122BA9E4FFFEFDFC22E40227A81227404B
:205D6000540F0227A880F67F017E009017FCE4935EFE7401935F4E24FFB322EF7011ED609B
:205D80000775FF0143AE012275FF0153AEFE22EFB40110ED600775FF0143AE022275FF01D6
:205DA00053AEFD2275FF02E5E630E2037F0322E5E630E3037F0022E5E630E1037F0422E5DE
:205DC000E67F0530E0027F0122EF600775FF0253E6BF2275FF0243E64022EF14600F1460D8
:205DE00014240270188B8075FF018DFD228B9075FF018DC9228BA075FF018DCA22AF038F53
:205E0000B075FF01AF058FCB2290311C122C12EF1460111460182402701ED143E580D149B9
:205E2000E5FD801CD143E590D149E5C98012D143E5A0D149E5CA8008D143E5B0D149E5CBA4
:205E40000227A890311F022BF21227A875FF0190311C022BF2E4F5FFAF9122E4F5FFAF92CD
:205E600022E4F5FF75D102E5D120E0FBE4F5D1F5FFEFD182EE540F42D6E4F5FFCFEDCF8FF4
:205E8000D422F5D7E4F5FF53D6F022E4F5FF8FD422E4F5FFE5D1540133333354F8FFE4F530
:205EA000FFE5D354074FFF22EF30E00E43F401E4F5FF43A404F5FF759624EF30E10E43F4F0
:205EC00001E4F5FF43A408F5FF759624EF30E20943F402E4F5FF75961EEF30E30943F4044D
:205EE000E4F5FF75961075FF01EF5403600475D7122275D72D22E4F5FF7584E6F5FF4394F3
:205F000004F5FF75981422E4F5FF75933F75FF03759A40D1F6E4F5FF759C93F5FF75A1A371
:205F2000F5FF758531F5FF758628E5FA54304480F5FA75FF0175E74A75FF0275DF4975FF73
:205F40000143D30475FF0153D367E4F5FF53E6BF75FF0175D825F5FF75B503F5FF75B2151C
:205F6000F5FF75BA02F5FF75AFB3F5FF75CD0AF5FF75CB08F5FF75CA12F5FF75BF0EF5FF46
:205F800075CC96F5FFF5BDF5FF75C281F5FF75AEE1F5FF75DA55F5FF75F580F5FF75E90315
:205FA000F5FF75E933F5FF75972A75FF01759B42759CA4759D29759E48759F2475A112754B
:205FC000A312759AF820560CF5FF43968090120FE04440F022CCEFCCCFEDCF74017E00C842
:205FE000EFC8088005C333CE33CED8F9FFCDECCDEF5D601B30551875FF0175DCAD75FF01F6
:2060000075DDCDE4F5FF759A74F5FF7594842275FF0175DC5375FF0175DD33E4F5FF759A69
:2060200014F5FF7594042275FF0175E46575FF0175D647229032E5EDF0901211E0FEF46064
:2060400006A3E0FDB4FF0C9032E77418F0A37413F080089032E7EEF0A3EDF012274064014F
:20606000600221A39032E5E0FE64086004EEB404089032E67428F080069032E6743AF0EF08
:206080001243D0FF122A43E47B64FAF9F812290CEF24D8FFEE343FFEED3493FDEC3416FC3C
:2060A0007B007A807903780012185631C19032E8E0FF9032E7E0C312568AE4FCFD12290C1A
:2060C000ECC0E0EDC0E0EEC0E0EFC0E09032E8E0FFE4FCFDFE7B64FAF9F812290CD0E0FB6A
:2060E000D0E0FAD0E0F9D0E0F8EB2FFBEA3EFAE93DF9E83CF89032E6E0FFE4FCFDFE122996
:206100000CEF2454FFEE340B12440AFCE47BA87A16F9F8121856CBEFCB9032E5E014605E9E
:2061200014601B24FE600C24FC7078E4F5FF75CE318006E4F5FF75CE21F5FF8BCF22E4FADE
:20614000E4F5FFEA2440F5CEE4F5FFEAFFC3740712568A74432FF58274183EF583E431A40D
:20616000C39DF5CFE4F5FFEA2448F5CEE4F5FFEA90184331A42DF5CF0AEAB408C322E4F529
:20618000FF75CE01F5FF8BCFF5FF75CE0EF5FFEB25E0F5CFE4F5FF75CE0FF5FFEB75F00310
:2061A000A4F5CF229325E0FDE433FCEB75F010A4FFAEF01227EECDEFCDEBFFE4C313EF13B6
:2061C00022C8ECC8C9EDC9CAEECACBEFCB2275FF01E5D530E602C32253FACFEFB40805433E
:2061E000FA308012EFB4040543FA208009EFB4020543FA108000D322E5F454181313135413
:206200001FFF22E5F75406FFBF06037F0822E5F75406FFBF04037F0422E5F75406FFBF0202
:20622000037F02227F012275FF018FDA2275FF01E5D520E602C322E5FA540360FA75FF01F5
:206240008FC3D322CEEFCE75FF01E5D520E602C32243FA04E4FDEDC39E50077F55512D0D2A
:2062600080F4E5FA543070047F0F80027FF0512DD322E5F71322E4903414F022903414E04A
:20628000C36001D32253897F5389BF5389DF438910D2ABD2AF758D82758BFFD28E22E490E1
:2062A0003415F0A3F0227F0120AF027F009034ECEFF0C28E758D82758BFFC28BD28EC390BE
:2062C0003416E094F1903415E094015007E475F00102284390341451DCA3F0227401F0E4B0
:2062E000A3F022C0E0C0F0C083C082C0D075D000C000C001C002C003C004C005C006C00723
:20630000C0FF51A6D0FFD007D006D005D004D003D002D001D000D0D0D082D083D0F0D0E0A7
:2063200032C0FFD0FF32C0FFD0FF32C0FFD0FF32713C91485357FD800C8553FD75FF0143A5
:2063400053015357FE8557808553FD229031B1EDF09031AE122C12E49031B3F01227A89126
:20636000485357FD71459031B47480F09031B4E0D39400403A713C71DC9031B2E0FF126A21
:206380002E9031B3EFF0E47F0371DFE58030E1129031AE122BF2122740FF9031B4E04F1272
:2063A00027A891AE71DC9031B4E0C313F080BD9031B1E07004D104800891485357FD8557AB
:2063C000808553FD71DC713C91A591485357FD7145E47F1471DF9031B3E0FF22E47F01FE64
:2063E000FDFC021B9C90341DEFF0E4A3F0A37480F090341FE0FFD39400402990341DE0FEDC
:20640000EF5E7004D104800891485357FD8557808553FD71DC713C91A571DC90341FE0C3AA
:2064200013F080CD91485357FD855780713971DCE58030E10690341E7401F091AEE47F14C0
:2064400071DF90341EE0FF2275FF0143530222E49034EDF0FF91485357FD71457E80EED361
:2064600094004016713C0000E58030E103EF4EFF91AE0000EEC313FE80E4EF1227A8ED703E
:2064800004D104800891485357FD8557808553FD713C000091AE000091485357FD71459038
:2064A00034EDE0FF22E47F05FEFDFC121B9C5357FE85578075FF015353FE8553FD2291AE3F
:2064C000B1FB8553FD71DC713CE47F0A71DF91485357FD7145126F3B021B9C91AEE4FEEFC9
:2064E00030E70A91485357FD8557808002D1048553FD000000000000000000000000000073
:2065000000000000000000000000000000000000000000000000000000000000000000007B
:206520000000713C00000000000000000000000000000000000000000000000000000000AE
:20654000000000000000000000000000000000000000000091AEEF25E0FF0EEE640860023F
:2065600081DF91485357FD7145000000000000000000000000000000000000000000000085
:2065800000000000000000000000000000000000000000000000000000713C00000000004E
:2065A0000000000000000000000000000000000000000000000000000000000000000000DB
:2065C0000000000000000000000000E4FFFEE58030E10B0FBF00010EBE02F3BFBCF081AE2F
:2065E00091485357FD714571DC713CB1FB8553FDE47F0A91A8126F3B021B9CE47F01FEFD70
:20660000FC121B9C5357FD85578075FF015353FD22E4FE7D80EDD39400401FED5F7004D155
:2066200004800891485357FD8557808553FD713C000091AEEDC313FD80DB91485357FD8511
:2066400057807139E58030E1027E0191AEAF062291485357FD714591AEE4FE000000000055
:2066600000000000000000000000000000000000000000000000000000000000000000001A
:206680000000000000000000000000EF25E0FF713C0000000000000000000000000000005A
:2066A0000000000000000000000000000000000000000000000000000000000000000000DA
:2066C00000E58030E1010F91AE0EEE6408708CD1048553FD000000000000000000000000E7
:2066E00000000000000000000000000000000000000000000000000000000000000000009A
:2067000000000000713C0000000000000000000000000000000000000000000000000000CC
:206720000000000000000000000000000000000000000000000081AE91485357FD71459163
:20674000AEE4FE0000000000000000000000000000000000000000000000000000000000A9
:2067600000000000000000000000000000000000000000EF25E0FF713C0000000000000079
:206780000000000000000000000000000000000000000000000000000000000000000000F9
:2067A000000000000000000000E58030E1010F91AE0EEE6408708C91485357FD714500007A
:2067C0000000000000000000000000000000000000000000000000000000000000000000B9
:2067E0000000000000000000000000000000713C00000000000000000000000000000000EC
:20680000000000000000000000000000000000000000000000000000000000000000000078
:206820000264AE1264485357FD8557801263390000000000000000000000000000000000D5
:20684000000000000000001266048553FD00000000000000000000000000000000000000E7
:20686000000000000022E0FF1264DB11237D017FA2EF54FE4DFF0264DB90324D122C12AC1A
:206880000511231171903250E0FDD394004025EC700D90324D122BF211BA304E1C8018904E
:2068A000324D122BF2903250E0FDA24D924BA24E924C801F304E02313622903417122C12CE
:2068C000ED600F903417312F122740FF1264DB1D80EE22903371122C12ED14FCD394004083
:2068E0000A903371122BF2AD043116304B051267388003126650903374EFF0903374E0FF8B
:20690000903371122BF2E92CF9E43AFAEF1227A8304C0231362290341A122C12ED600F127B
